:100000000C9462000C948A000C948A000C948A0070
:100010000C948A000C948A000C948A000C948A0038
:100020000C948A000C948A000C948A000C948A0028
:100030000C948A000C948A000C948A000C948A0018
:100040000C9444030C948A000C948A000C948A004B
:100050000C948A000C948A000C948A000C948A00F8
:100060000C948A000C948A000000000024002700F1
:100070002A0000000000250028002B0000000000DE
:1000800023002600290004040404040404040202DA
:100090000202020203030303030301020408102007
:1000A0004080010204081020010204081020000012
:1000B0000008000201000003040700000000000027
:1000C0000000370511241FBECFEFD8E0DEBFCDBF43
:1000D00011E0A0E0B1E0E8E9F0E102C005900D9286
:1000E000A238B107D9F721E0A2E8B1E001C01D9222
:1000F000A33CB207E1F710E0C2E6D0E004C02197CC
:10010000FE010E945505C136D107C9F70E948E0332
:100110000C944A080C940000833081F028F481305C
:1001200099F08230A1F008958730A9F08830B9F0B5
:100130008430D1F4809180008F7D03C08091800055
:100140008F7780938000089584B58F7702C084B53F
:100150008F7D84BD08958091B0008F7703C080911A
:10016000B0008F7D8093B0000895CF93DF93282F48
:1001700030E0F901E255FF4F8491F901E656FF4F57
:10018000D491F901EA57FF4FC491CC2391F081112A
:100190000E948C00EC2FF0E0EE0FFF1FE458FF4FA1
:1001A000A591B491EC91ED2381E090E021F480E001
:1001B00002C080E090E0DF91CF9108951F93CF932C
:1001C000DF93282F30E0F901E255FF4F8491F901C8
:1001D000E656FF4FD491F901EA57FF4FC491CC2363
:1001E000C1F0162F81110E948C00EC2FF0E0EE0F71
:1001F000FF1FEE58FF4FA591B4919FB7F8941111CE
:1002000004C08C91D095D82302C0EC91DE2BDC93F6
:100210009FBFDF91CF911F910895CF93DF9390E01F
:10022000FC01E656FF4F2491FC01EA57FF4F8491F1
:10023000882361F190E0880F991FFC01E859FF4F76
:10024000C591D491FC01EE58FF4FA591B491611175
:1002500009C09FB7F8948881209582238883EC9108
:100260002E230BC0623061F49FB7F8948881322F3F
:10027000309583238883EC912E2B2C939FBF06C04F
:100280008FB7F894E8812E2B28838FBFDF91CF9111
:1002900008953FB7F8948091A7019091A801A0918B
:1002A000A901B091AA0126B5A89B05C02F3F19F05E
:1002B0000196A11DB11D3FBFBA2FA92F982F8827E6
:1002C000820F911DA11DB11DBC01CD0142E0660F41
:1002D000771F881F991F4A95D1F708958F929F9293
:1002E000AF92BF92CF92DF92EF92FF926B017C01AF
:1002F0000E9449014B015C01C114D104E104F104E5
:10030000F1F00E944901DC01CB0188199909AA0981
:10031000BB09883E9340A105B10570F321E0C21AE4
:10032000D108E108F10888EE880E83E0981EA11C30
:10033000B11CC114D104E104F10419F7DDCFFF9021
:10034000EF90DF90CF90BF90AF909F908F900895E7
:10035000CF92DF92EF92FF920F931F93CF93DF9391
:100360006C017A018B01C0E0D0E0CE15DF0581F091
:10037000D8016D918D01D601ED91FC910190F08134
:10038000E02DC6010995892B11F02196EECF7E0153
:10039000C701DF91CF911F910F91FF90EF90DF90F8
:1003A000CF900895CF93DF93EC0160E08E810E949F
:1003B000DE0061E08E810E94DE0060E08E810E949E
:1003C000DE008BE891E00197F1F7DF91CF9108957E
:1003D000CF92DF92EF92FF920F931F93CF93DF9311
:1003E0006C017C0187E0E80EF11CC0E0D0E0062F34
:1003F00010E0B8010C2E02C0759567950A94E2F7DB
:100400006170F70181917F010E94DE002196C43066
:10041000D10579F7C601DF91CF911F910F91FF9020
:10042000EF90DF90CF900C94D201CF92DF92EF92B9
:10043000FF920F931F93CF93DF93EC01F62E642F5F
:100440008C810E94DE008D818F3F19F060E00E9458
:10045000DE008F850F2D10E084FF25C06E0187E040
:10046000C80ED11CE12CF12CB8010E2C02C07595E0
:1004700067950A94E2F76170F60181916F010E941D
:10048000DE00FFEFEF1AFF0A88E0E816F10461F7DB
:10049000CE01DF91CF911F910F91FF90EF90DF90F0
:1004A000CF900C94D201B80184E0759567958A9538
:1004B000E1F7CE010E94E8016F2DCE01DF91CF91CF
:1004C0001F910F91FF90EF90DF90CF900C94E80177
:1004D00040E0682F8BEA91E00C941502CF93DF93F4
:1004E000823028F09091BA0198609093BA0180937D
:1004F000BE011092BF0180E48093C00180E180932F
:10050000C10180E58093C20161E08091AF010E944A
:100510000D018091B0018F3F19F061E00E940D0143
:1005200061E08091B1010E940D01CBEAD1E09E0112
:100530002B5A31408091BA0184FD03C084E090E0E1
:1005400002C088E090E02196281739072CF461E07A
:100550008E810E940D01EBCF8BE39DE00197F1F7B7
:1005600060E08091AF010E94DE0060E08091B10107
:100570000E94DE008091B0018F3F19F060E00E9480
:10058000DE008091BA0184FD20C063E08BEA91E037
:100590000E94E801CBE4D6E4CE010197F1F763E0D5
:1005A0008BEA91E00E94E8012197F1F763E08BEA82
:1005B00091E00E94E80183E592E00197F1F762E0A3
:1005C0008BEA91E00E94E80115C080620E946802F7
:1005D0008BE496E40197F1F78091BA0180620E9462
:1005E000680283E592E00197F1F78091BA01806299
:1005F0000E9468028091BA0180620E94680284E0D1
:100600008093BB018CE00E94680281E00E94680236
:100610008BE39FE10197F1F782E08093BC0186E0D4
:10062000DF91CF910C946802643008F063E0909100
:10063000BE01691710F06FEF690FE62FF0E0E55586
:10064000FE4F9489890F80680C94680241E00E94F3
:10065000150281E090E00895089580E090E008950B
:10066000009769F0FC0101900020E9F73197AF0194
:10067000481B590BBC018BEA91E00C94A80180E067
:1006800090E008950E945B051F920F920FB60F92A3
:1006900011242F933F938F939F93AF93BF93809198
:1006A000A3019091A401A091A501B091A601309160
:1006B000A20123E0230F2D3720F40196A11DB11DC7
:1006C00005C026E8230F0296A11DB11D2093A201AB
:1006D0008093A3019093A401A093A501B093A601D8
:1006E0008091A7019091A801A091A901B091AA01C0
:1006F0000196A11DB11D8093A7019093A801A0931D
:10070000A901B093AA01BF91AF919F918F913F91A1
:100710002F910F900FBE0F901F901895CF93DF93DE
:10072000CDB7DEB72C970FB6F894DEBF0FBECDBFA6
:10073000789484B5826084BD84B5816084BD85B5BC
:10074000826085BD85B5816085BD80916E008160C8
:1007500080936E001092810080918100826080936E
:100760008100809181008160809381008091800070
:100770008160809380008091B10084608093B1009B
:100780008091B00081608093B00080917A00846095
:1007900080937A0080917A00826080937A008091C1
:1007A0007A00816080937A0080917A0080688093DB
:1007B0007A001092C10010E060E0812F0E940D01CC
:1007C0001F5F1A30C9F761E08AE00E940D0161E005
:1007D0008BE00E940D0161E08CE00E940D0182E03F
:1007E0000E946E0280E291E00E943003CE010196E9
:1007F0006C0150EA252E51E0352E6CE3462E61E067
:10080000562E70E0672E70E0772E80E00E94B500D3
:10081000892B71F581E00E94B500892B49F582E0B2
:100820000E94B500892B21F583E00E94B500892B39
:10083000F9F484E00E94B500892BD1F485E00E9490
:10084000B500892BA9F486E00E94B500892B81F4BC
:1008500087E00E94B500892B59F488E00E94B5001A
:10086000892B31F489E00E94B500892B09F4F8C086
:10087000E090A001F090A101F4E0EF16F1040CF477
:1008800076C094E0E916F10409F059C061E086E011
:100890000E9414038091960190919701E8E9F1E09C
:1008A000219131916AE0689FA001699F500D112448
:1008B000CA01820F931F2E163F0691F7909397015E
:1008C000809396019F938F935F924F92DF92CF9286
:1008D0000E946005C6010E94300362E370E080E080
:1008E00090E00E946E010F900F900F900F900F906C
:1008F0000F90809196019091970161E08735944027
:1009000091F486E00E94140383E491E00E94300396
:1009100060E080E00E9414038FE491E00E943003C5
:1009200061E08AE009C086E00E94140384E691E059
:100930000E94300361E08BE00E94DE0008C060E0AE
:1009400080E00E9414038FE691E00E94300360EB88
:1009500074E080E090E00E946E018091A00190918F
:10096000A10101969093A1018093A0014ECF8CE04C
:10097000882E81E0982E92E8A92E91E0B92E00E011
:1009800010E0F4018081F2E08F0E911C0E94B5000E
:10099000F501009731F1208131818217930719F118
:1009A000F801EE0FFF1FEE57FE4F918380831F93D8
:1009B0000F938AE291E09F938F93DF92CF920E94F0
:1009C000600561E080E00E941403C6010E943003CC
:1009D0000F900F900F900F900F900F900B871C8728
:1009E00011C01182108262E370E080E090E00E940A
:1009F0006E010F5F1F4FF2E0AF0EB11C0A30110500
:100A000009F0BFCFF701EE0FFF1FE856FE4F2B8511
:100A100020836C85618361E086E00E9414038091ED
:100A2000A0019091A101FC01EE0FFF1FE856FE4FBF
:100A300021812F9320812F9301969F938F9381E3A0
:100A400091E09F938F93DF92CF920E946005C60141
:100A50000E9430030FB6F894DEBF0FBECDBF77CF34
:100A60006114710409F4D1CE0E940000CECEEBEAED
:100A7000F1E01382128284E091E09183808383E12C
:100A800084838FEF858382E1868381E1878380E1A0
:100A900080878FE081878EE0828713861486158693
:100AA0001686178681E00C946E02EE0FFF1F0590EC
:100AB000F491E02D099481E090E0F8940C944A08B8
:100AC000AEE0B0E0E6E6F5E00C9421080D891E8961
:100AD00086E08C831A8309838FEF9FE79E838D8343
:100AE000AE01475E5F4F6F89788DCE0101960E94FF
:100AF0008205EF81F885E00FF11F10822E96E4E069
:100B00000C943D08ABE0B0E0E8E8F5E00C94130885
:100B10006C017B018A01FC0117821682838181FFAF
:100B2000CCC1CE0101963C01F6019381F70193FD02
:100B3000859193FF81917F01882309F4BAC18532A1
:100B400039F493FD859193FF81917F01853229F4DA
:100B5000B60190E00E947907E7CF912C212C312C2F
:100B6000FFE1F315D8F08B3279F038F4803279F068
:100B70008332A1F4232D20611DC08D3261F08033BA
:100B800069F4232D216016C0832D8260382EE32D59
:100B9000E4603E2E2AC0F32DF8601DC037FC2DC046
:100BA00020ED280F2A3040F08E32B9F436FC81C196
:100BB000232D2064322E19C036FE06C08AE0989E8E
:100BC000200D1124922E11C0EAE02E9E200D11243A
:100BD000222EF32DF0623F2E08C08C3621F4832D97
:100BE0008068382E02C0883641F4F70193FD859164
:100BF00093FF81917F018111B3CF982F9F7D9554F1
:100C0000933028F40C5F1F4F9FE399830DC0833608
:100C100031F0833771F0833509F059C021C0F801F4
:100C2000808189830E5F1F4F88248394912C530108
:100C300013C02801F2E04F0E511CF801A080B180D2
:100C400036FE03C0692D70E002C06FEF7FEFC50173
:100C50000E946E074C018201F32DFF773F2E16C0D4
:100C6000280122E0420E511CF801A080B18036FE1E
:100C700003C0692D70E002C06FEF7FEFC5010E94D5
:100C800063074C01F32DF0683F2E820133FC1BC03B
:100C9000822D90E088169906B0F4B60180E290E0CB
:100CA0000E9479072A94F4CFF50137FC859137FE2D
:100CB00081915F01B60190E00E94790721102A948A
:100CC00021E0821A91088114910471F7E8C08436FA
:100CD00011F0893641F5F80137FE07C06081718156
:100CE000828193810C5F1F4F08C060817181072E44
:100CF000000C880B990B0E5F1F4FF32DFF763F2ED4
:100D000097FF09C090958095709561957F4F8F4FA3
:100D10009F4FF0683F2E2AE030E0A3010E94B50704
:100D2000882E861845C0853731F4232D2F7EB22EAC
:100D30002AE030E025C0932D997FB92E8F36C1F07F
:100D400018F4883579F0B5C0803719F0883721F06C
:100D5000B0C0E92FE061BE2EB4FE0DC0FB2DF460E3
:100D6000BF2E09C034FE0AC0292F2660B22E06C04D
:100D700028E030E005C020E130E002C020E132E0B0
:100D8000F801B7FE07C060817181828193810C5F99
:100D90001F4F06C06081718180E090E00E5F1F4FA1
:100DA000A3010E94B507882E8618FB2DFF773F2EE2
:100DB00036FE0DC0232D2E7FA22E891458F434FE4A
:100DC0000BC032FC09C0832D8E7EA82E05C0B82C26
:100DD000A32C03C0B82C01C0B92CA4FE0FC0FE0187
:100DE000E80DF11D8081803321F49A2D997EA92E82
:100DF00009C0A2FE06C0B394B39404C08A2D8678BD
:100E000009F0B394A3FC11C0A0FE06C0B21488F48C
:100E1000280C922C9B180EC0B21460F4B60180E22C
:100E200090E00E947907B394F7CFB21418F42B180E
:100E300002C0982C212CA4FE10C0B60180E390E0E3
:100E40000E947907A2FE17C0A1FC03C088E790E0CA
:100E500002C088E590E0B6010CC08A2D867859F072
:100E6000A1FE02C08BE201C080E2A7FC8DE2B601C8
:100E700090E00E947907891438F4B60180E390E08D
:100E80000E9479079A94F7CF8A94F301E80DF11D37
:100E90008081B60190E00E9479078110F5CF222071
:100EA00009F442CEB60180E290E00E9479072A94CC
:100EB000F6CFF6018681978102C08FEF9FEF2B96C8
:100EC000E2E10C942F08FC01059061507040011084
:100ED000D8F7809590958E0F9F1F0895FC01615063
:100EE000704001900110D8F7809590958E0F9F1F4C
:100EF00008950F931F93CF93DF93FB01238121FD6F
:100F000003C08FEF9FEF2CC022FF16C04681578190
:100F1000248135814217530744F4A081B1819D019A
:100F20002F5F3F4F318320838C93268137812F5F42
:100F30003F4F3783268314C08B01EC01FB010084F3
:100F4000F185E02D0995892BE1F6D80116968D9152
:100F50009C911797019617969C938E931697CE01A6
:100F6000DF91CF911F910F910895FA01AA272830A0
:100F700051F1203181F1E8946F936E7F6E5F7F4F66
:100F80008F4F9F4FAF4FB1E03ED0B4E03CD0670FE2
:100F9000781F891F9A1FA11D680F791F8A1F911D35
:100FA000A11D6A0F711D811D911DA11D20D009F485
:100FB00068943F912AE0269F11243019305D3193C7
:100FC000DEF6CF010895462F4770405D4193B3E0B0
:100FD0000FD0C9F7F6CF462F4F70405D4A3318F057
:100FE000495D31FD4052419302D0A9F7EACFB4E008
:100FF000A6959795879577956795BA95C9F70097C0
:101000006105710508959B01AC010A2E0694579560
:10101000479537952795BA95C9F7620F731F841FB7
:10102000951FA01D08952F923F924F925F926F924D
:101030007F928F929F92AF92BF92CF92DF92EF9268
:10104000FF920F931F93CF93DF93CDB7DEB7CA1BE9
:10105000DB0B0FB6F894DEBF0FBECDBF09942A8814
:10106000398848885F846E847D848C849B84AA84BC
:10107000B984C884DF80EE80FD800C811B81AA8149
:10108000B981CE0FD11D0FB6F894DEBF0FBECDBF14
:08109000ED010895F894FFCF73
:10109800000000002603A8012D032C030000010016
:1010A800020003000400050006000700080009000C
:1010B800454E5445522050494E004B45593A2564F7
:1010C80000444947495425642D25640050494E3A47
:1010D8002564002D2D434F52524543542D2D004178
:1010E800434345535320415554484F52495A454468
:1010F800202121002D214641494C4544212D004DF8
:101108004158204C494D4954205245414348454493
:021118000000D5
:00000001FF
